{
  "contractName": "BitcademyVesting",
  "abi": [
    {
      "constant": true,
      "inputs": [
        {
          "name": "",
          "type": "address"
        }
      ],
      "name": "members",
      "outputs": [
        {
          "name": "",
          "type": "bool"
        }
      ],
      "payable": false,
      "stateMutability": "view",
      "type": "function"
    },
    {
      "constant": true,
      "inputs": [],
      "name": "duration",
      "outputs": [
        {
          "name": "",
          "type": "uint256"
        }
      ],
      "payable": false,
      "stateMutability": "view",
      "type": "function"
    },
    {
      "constant": true,
      "inputs": [],
      "name": "cliff",
      "outputs": [
        {
          "name": "",
          "type": "uint256"
        }
      ],
      "payable": false,
      "stateMutability": "view",
      "type": "function"
    },
    {
      "constant": false,
      "inputs": [],
      "name": "renounceOwnership",
      "outputs": [],
      "payable": false,
      "stateMutability": "nonpayable",
      "type": "function"
    },
    {
      "constant": true,
      "inputs": [],
      "name": "owner",
      "outputs": [
        {
          "name": "",
          "type": "address"
        }
      ],
      "payable": false,
      "stateMutability": "view",
      "type": "function"
    },
    {
      "constant": true,
      "inputs": [],
      "name": "noOfMembers",
      "outputs": [
        {
          "name": "",
          "type": "uint256"
        }
      ],
      "payable": false,
      "stateMutability": "view",
      "type": "function"
    },
    {
      "constant": true,
      "inputs": [],
      "name": "released",
      "outputs": [
        {
          "name": "",
          "type": "uint256"
        }
      ],
      "payable": false,
      "stateMutability": "view",
      "type": "function"
    },
    {
      "constant": true,
      "inputs": [],
      "name": "start",
      "outputs": [
        {
          "name": "",
          "type": "uint256"
        }
      ],
      "payable": false,
      "stateMutability": "view",
      "type": "function"
    },
    {
      "constant": false,
      "inputs": [
        {
          "name": "_newOwner",
          "type": "address"
        }
      ],
      "name": "transferOwnership",
      "outputs": [],
      "payable": false,
      "stateMutability": "nonpayable",
      "type": "function"
    },
    {
      "inputs": [
        {
          "name": "_start",
          "type": "uint256"
        },
        {
          "name": "_cliff",
          "type": "uint256"
        },
        {
          "name": "_duration",
          "type": "uint256"
        }
      ],
      "payable": false,
      "stateMutability": "nonpayable",
      "type": "constructor"
    },
    {
      "anonymous": false,
      "inputs": [
        {
          "indexed": false,
          "name": "amount",
          "type": "uint256"
        }
      ],
      "name": "Released",
      "type": "event"
    },
    {
      "anonymous": false,
      "inputs": [
        {
          "indexed": true,
          "name": "previousOwner",
          "type": "address"
        }
      ],
      "name": "OwnershipRenounced",
      "type": "event"
    },
    {
      "anonymous": false,
      "inputs": [
        {
          "indexed": true,
          "name": "previousOwner",
          "type": "address"
        },
        {
          "indexed": true,
          "name": "newOwner",
          "type": "address"
        }
      ],
      "name": "OwnershipTransferred",
      "type": "event"
    },
    {
      "constant": false,
      "inputs": [
        {
          "name": "_member",
          "type": "address"
        }
      ],
      "name": "addMember",
      "outputs": [],
      "payable": false,
      "stateMutability": "nonpayable",
      "type": "function"
    },
    {
      "constant": false,
      "inputs": [
        {
          "name": "_member",
          "type": "address"
        }
      ],
      "name": "removeMember",
      "outputs": [],
      "payable": false,
      "stateMutability": "nonpayable",
      "type": "function"
    },
    {
      "constant": false,
      "inputs": [
        {
          "name": "_token",
          "type": "address"
        },
        {
          "name": "_member",
          "type": "address"
        }
      ],
      "name": "release",
      "outputs": [],
      "payable": false,
      "stateMutability": "nonpayable",
      "type": "function"
    },
    {
      "constant": true,
      "inputs": [
        {
          "name": "_token",
          "type": "address"
        }
      ],
      "name": "releasableAmount",
      "outputs": [
        {
          "name": "",
          "type": "uint256"
        }
      ],
      "payable": false,
      "stateMutability": "view",
      "type": "function"
    },
    {
      "constant": true,
      "inputs": [
        {
          "name": "_token",
          "type": "address"
        }
      ],
      "name": "vestedAmount",
      "outputs": [
        {
          "name": "",
          "type": "uint256"
        }
      ],
      "payable": false,
      "stateMutability": "view",
      "type": "function"
    }
  ],
  "bytecode": "0x608060405234801561001057600080fd5b50604051606080610dc1833981018060405281019080805190602001909291908051906020019092919080519060200190929190505050336000806101000a81548173ffffffffffffffffffffffffffffffffffffffff021916908373ffffffffffffffffffffffffffffffffffffffff16021790555080821115151561009657600080fd5b806003819055506100bd82846100d264010000000002610b34179091906401000000009004565b600181905550826002819055505050506100ee565b600081830190508281101515156100e557fe5b80905092915050565b610cc4806100fd6000396000f3006080604052600436106100d0576000357c0100000000000000000000000000000000000000000000000000000000900463ffffffff16806308ae4b0c146100d55780630b1ca49a146101305780630fb5a6b41461017357806313d033c01461019e5780631726cbc8146101c9578063384711cc1461022057806348b7504414610277578063715018a6146102da5780638da5cb5b146102f157806391c38970146103485780639613252114610373578063be9a65551461039e578063ca6d56dc146103c9578063f2fde38b1461040c575b600080fd5b3480156100e157600080fd5b50610116600480360381019080803573ffffffffffffffffffffffffffffffffffffffff16906020019092919050505061044f565b604051808215151515815260200191505060405180910390f35b34801561013c57600080fd5b50610171600480360381019080803573ffffffffffffffffffffffffffffffffffffffff16906020019092919050505061046f565b005b34801561017f57600080fd5b50610188610541565b6040518082815260200191505060405180910390f35b3480156101aa57600080fd5b506101b3610547565b6040518082815260200191505060405180910390f35b3480156101d557600080fd5b5061020a600480360381019080803573ffffffffffffffffffffffffffffffffffffffff16906020019092919050505061054d565b6040518082815260200191505060405180910390f35b34801561022c57600080fd5b50610261600480360381019080803573ffffffffffffffffffffffffffffffffffffffff169060200190929190505050610573565b6040518082815260200191505060405180910390f35b34801561028357600080fd5b506102d8600480360381019080803573ffffffffffffffffffffffffffffffffffffffff169060200190929190803573ffffffffffffffffffffffffffffffffffffffff1690602001909291905050506106e6565b005b3480156102e657600080fd5b506102ef6108a9565b005b3480156102fd57600080fd5b506103066109ab565b604051808273ffffffffffffffffffffffffffffffffffffffff1673ffffffffffffffffffffffffffffffffffffffff16815260200191505060405180910390f35b34801561035457600080fd5b5061035d6109d0565b6040518082815260200191505060405180910390f35b34801561037f57600080fd5b506103886109d6565b6040518082815260200191505060405180910390f35b3480156103aa57600080fd5b506103b36109dc565b6040518082815260200191505060405180910390f35b3480156103d557600080fd5b5061040a600480360381019080803573ffffffffffffffffffffffffffffffffffffffff1690602001909291905050506109e2565b005b34801561041857600080fd5b5061044d600480360381019080803573ffffffffffffffffffffffffffffffffffffffff169060200190929190505050610ab4565b005b60046020528060005260406000206000915054906101000a900460ff1681565b6000809054906101000a900473ffffffffffffffffffffffffffffffffffffffff1673ffffffffffffffffffffffffffffffffffffffff163373ffffffffffffffffffffffffffffffffffffffff161415156104ca57600080fd5b6000600460008373ffffffffffffffffffffffffffffffffffffffff1673ffffffffffffffffffffffffffffffffffffffff16815260200190815260200160002060006101000a81548160ff0219169083151502179055506105386001600554610b1b90919063ffffffff16565b60058190555050565b60035481565b60015481565b600061056c60065461055e84610573565b610b1b90919063ffffffff16565b9050919050565b60008060008373ffffffffffffffffffffffffffffffffffffffff166370a08231306040518263ffffffff167c0100000000000000000000000000000000000000000000000000000000028152600401808273ffffffffffffffffffffffffffffffffffffffff1673ffffffffffffffffffffffffffffffffffffffff168152602001915050602060405180830381600087803b15801561061357600080fd5b505af1158015610627573d6000803e3d6000fd5b505050506040513d602081101561063d57600080fd5b8101908080519060200190929190505050915061066560065483610b3490919063ffffffff16565b905060015442101561067a57600092506106df565b610691600354600254610b3490919063ffffffff16565b421015156106a1578092506106df565b6106dc6003546106ce6106bf60025442610b1b90919063ffffffff16565b84610b5090919063ffffffff16565b610b8890919063ffffffff16565b92505b5050919050565b600081600460008273ffffffffffffffffffffffffffffffffffffffff1673ffffffffffffffffffffffffffffffffffffffff16815260200190815260200160002060009054906101000a900460ff16151561074157600080fd5b61074a8461054d565b915060008211151561075b57600080fd5b61077082600654610b3490919063ffffffff16565b60068190555061078b60055483610b8890919063ffffffff16565b91508373ffffffffffffffffffffffffffffffffffffffff1663a9059cbb84846040518363ffffffff167c0100000000000000000000000000000000000000000000000000000000028152600401808373ffffffffffffffffffffffffffffffffffffffff1673ffffffffffffffffffffffffffffffffffffffff16815260200182815260200192505050602060405180830381600087803b15801561083057600080fd5b505af1158015610844573d6000803e3d6000fd5b505050506040513d602081101561085a57600080fd5b8101908080519060200190929190505050507ffb81f9b30d73d830c3544b34d827c08142579ee75710b490bab0b3995468c565826040518082815260200191505060405180910390a150505050565b6000809054906101000a900473ffffffffffffffffffffffffffffffffffffffff1673ffffffffffffffffffffffffffffffffffffffff163373ffffffffffffffffffffffffffffffffffffffff1614151561090457600080fd5b6000809054906101000a900473ffffffffffffffffffffffffffffffffffffffff1673ffffffffffffffffffffffffffffffffffffffff167ff8df31144d9c2f0f6b59d69b8b98abd5459d07f2742c4df920b25aae33c6482060405160405180910390a260008060006101000a81548173ffffffffffffffffffffffffffffffffffffffff021916908373ffffffffffffffffffffffffffffffffffffffff160217905550565b6000809054906101000a900473ffffffffffffffffffffffffffffffffffffffff1681565b60055481565b60065481565b60025481565b6000809054906101000a900473ffffffffffffffffffffffffffffffffffffffff1673ffffffffffffffffffffffffffffffffffffffff163373ffffffffffffffffffffffffffffffffffffffff16141515610a3d57600080fd5b6001600460008373ffffffffffffffffffffffffffffffffffffffff1673ffffffffffffffffffffffffffffffffffffffff16815260200190815260200160002060006101000a81548160ff021916908315150217905550610aab6001600554610b3490919063ffffffff16565b60058190555050565b6000809054906101000a900473ffffffffffffffffffffffffffffffffffffffff1673ffffffffffffffffffffffffffffffffffffffff163373ffffffffffffffffffffffffffffffffffffffff16141515610b0f57600080fd5b610b1881610b9e565b50565b6000828211151515610b2957fe5b818303905092915050565b60008183019050828110151515610b4757fe5b80905092915050565b600080831415610b635760009050610b82565b8183029050818382811515610b7457fe5b04141515610b7e57fe5b8090505b92915050565b60008183811515610b9557fe5b04905092915050565b600073ffffffffffffffffffffffffffffffffffffffff168173ffffffffffffffffffffffffffffffffffffffff1614151515610bda57600080fd5b8073ffffffffffffffffffffffffffffffffffffffff166000809054906101000a900473ffffffffffffffffffffffffffffffffffffffff1673ffffffffffffffffffffffffffffffffffffffff167f8be0079c531659141344cd1fd0a4f28419497f9722a3daafe3b4186f6b6457e060405160405180910390a3806000806101000a81548173ffffffffffffffffffffffffffffffffffffffff021916908373ffffffffffffffffffffffffffffffffffffffff160217905550505600a165627a7a7230582016044df75de152507e6d347c5eb03104ec75856fe27ba5c3f8c494fae01007b60029",
  "source": "pragma solidity ^0.4.23;\r\n\r\nimport \"./BitcademyToken.sol\";\r\nimport \"openzeppelin-solidity/contracts/math/SafeMath.sol\";\r\nimport \"openzeppelin-solidity/contracts/ownership/Ownable.sol\";\r\n\r\n\r\n/**\r\n * @title TokenVesting\r\n * @dev A token holder contract that can release its token balance gradually like a\r\n * owner.\r\n */\r\ncontract BitcademyVesting is Ownable {\r\n  using SafeMath for uint256;\r\n\r\n  event Released(uint256 amount);\r\n\r\n  uint256 public cliff;\r\n  uint256 public start;\r\n  uint256 public duration;\r\n\r\n  mapping (address=>bool) public members;\r\n  uint256 public noOfMembers;\r\n  uint256 public released;\r\n\r\n  /**\r\n   * @dev Creates a vesting contract that vests its balance of any BitcademyToken token to the\r\n   * _beneficiary, gradually in a linear fashion until _start + _duration. By then all\r\n   * of the balance will have vested.\r\n   * @param _cliff duration in seconds of the cliff in which tokens will begin to vest\r\n   * @param _start the time (as Unix time) at which point vesting starts\r\n   * @param _duration duration in seconds of the period in which the tokens will vest\r\n   */\r\n  constructor(\r\n    uint256 _start,\r\n    uint256 _cliff,\r\n    uint256 _duration\r\n  )\r\n    public\r\n  {\r\n    require(_cliff <= _duration);\r\n\r\n    duration = _duration;\r\n    cliff = _start.add(_cliff);\r\n    start = _start;\r\n  }\r\n\r\n  modifier onlyMember(address memberAddr) {\r\n    require(members[memberAddr]);\r\n      _;\r\n  }\r\n\r\n  function addMember(address _member) public onlyOwner {\r\n      members[_member] = true;\r\n      noOfMembers = noOfMembers.add(1);\r\n  }\r\n\r\n  function removeMember(address _member) public onlyOwner {\r\n      members[_member] = false;\r\n      noOfMembers = noOfMembers.sub(1);\r\n  }\r\n\r\n  /**\r\n   * @notice Transfers vested tokens to beneficiary.\r\n   * @param _token BitcademyToken token which is being vested\r\n   */\r\n  function release(BitcademyToken _token, address _member) onlyMember(_member) public {\r\n    uint256 unreleased = releasableAmount(_token);\r\n\r\n    require(unreleased > 0);\r\n\r\n    released = released.add(unreleased);\r\n\r\n    unreleased = unreleased.div(noOfMembers);\r\n\r\n    _token.transfer(_member, unreleased);\r\n\r\n    emit Released(unreleased);\r\n  }\r\n\r\n  /**\r\n   * @dev Calculates the amount that has already vested but hasn't been released yet.\r\n   * @param _token BitcademyToken token which is being vested\r\n   */\r\n  function releasableAmount(BitcademyToken _token) public view returns (uint256) {\r\n    return vestedAmount(_token).sub(released);\r\n  }\r\n\r\n  /**\r\n   * @dev Calculates the amount that has already vested.\r\n   * @param _token BitcademyToken token which is being vested\r\n   */\r\n  function vestedAmount(BitcademyToken _token) public view returns (uint256) {\r\n    uint256 currentBalance = _token.balanceOf(this);\r\n    uint256 totalBalance = currentBalance.add(released);\r\n\r\n    if (block.timestamp < cliff) {\r\n      return 0;\r\n    } else if (block.timestamp >= start.add(duration)) {\r\n      return totalBalance;\r\n    } else {\r\n      return totalBalance.mul(block.timestamp.sub(start)).div(duration);\r\n    }\r\n  }\r\n}\r\n",
  "sourcePath": "/home/ubuntu/bitacademygold/contracts/BitcademyVesting.sol",
  "compiler": {
    "name": "solc",
    "version": "0.4.23+commit.124ca40d.Emscripten.clang"
  },
  "schemaVersion": "2.0.0",
  "updatedAt": "2018-08-07T13:39:53.696Z"
}